:020000040800F2
:100000000028002071170008A1130008A913000898
:10001000B1130008B9130008C11300080000000064
:10002000000000000000000000000000C9130008EC
:10003000D513000800000000E1130008ED130008CC
:10004000B9170008B9170008B9170008B917000850
:10005000B9170008B9170008B9170008B917000840
:10006000B9170008B9170008B9170008B917000830
:10007000B9170008B9170008B9170008B917000820
:10008000B9170008B9170008B9170008B917000810
:10009000B9170008B9170008B9170008B917000800
:1000A000B9170008B9170008B9170008B9170008F0
:1000B000F9130008B917000800000000B91700087C
:1000C000B91700080000000000000000B917000880
:1000D00000000000B9170008B91700080000000070
:1000E000B9170008B9170008B91700080000000088
:1000F0000000000000000000000000000000000000
:0C01000000000000000000005FF808F1A3
:10010C0010B5054C237833B9044B13B10448AFF345
:10011C0000800123237010BD3C0000200000000073
:10012C00382E000808B5034B1BB103490348AFF345
:10013C00008008BD0000000040000020382E0008A0
:10014C0081F0004102E000BF83F0004330B54FEA7C
:10015C0041044FEA430594EA050F08BF90EA020FE9
:10016C001FBF54EA000C55EA020C7FEA645C7FEA7C
:10017C00655C00F0E2804FEA5454D4EB5555B8BF9F
:10018C006D420CDD2C4480EA020281EA030382EA10
:10019C00000083EA010180EA020281EA0303362DA2
:1001AC0088BF30BD11F0004F4FEA01314FF4801C75
:1001BC004CEA113102D0404261EB410113F0004F87
:1001CC004FEA03334CEA133302D0524263EB43033E
:1001DC0094EA050F00F0A780A4F10104D5F1200EDC
:1001EC000DDB02FA0EFC22FA05F2801841F1000137
:1001FC0003FA0EF2801843FA05F359410EE0A5F10B
:10020C0020050EF1200E012A03FA0EFC28BF4CF03B
:10021C00020C43FA05F3C01851EBE37101F00045F1
:10022C0007D54FF0000EDCF1000C7EEB00006EEBFE
:10023C000101B1F5801F1BD3B1F5001F0CD3490888
:10024C005FEA30004FEA3C0C04F101044FEA4452DF
:10025C0012F5800F80F09A80BCF1004F08BF5FEA66
:10026C00500C50F1000041EB045141EA050130BD46
:10027C005FEA4C0C404141EB0101013C28BFB1F558
:10028C00801FE9D291F0000F04BF01460020B1FAA3
:10029C0081F308BF2033A3F10B03B3F120020CDA76
:1002AC000C3208DD02F1140CC2F10C0201FA0CF054
:1002BC0021FA02F10CE002F11402D8BFC2F1200CB9
:1002CC0001FA02F120FA0CFCDCBF41EA0C0190406F
:1002DC00E41AA2BF01EB0451294330BD6FEA0404B8
:1002EC001F3C1CDA0C340EDC04F11404C4F12002A3
:1002FC0020FA04F001FA02F340EA030021FA04F3B5
:10030C0045EA030130BDC4F10C04C4F1200220FA0B
:10031C0002F001FA04F340EA0300294630BD21FA49
:10032C0004F0294630BD94F0000F83F4801306BF0F
:10033C0081F480110134013D4EE77FEA645C18BF03
:10034C007FEA655C29D094EA050F08BF90EA020F9A
:10035C0005D054EA000C04BF1946104630BD91EA92
:10036C00030F1EBF0021002030BD5FEA545C05D195
:10037C004000494128BF41F0004130BD14F58004D4
:10038C003CBF01F5801130BD01F0004545F0FE4148
:10039C0041F470014FF0000030BD7FEA645C1ABF7D
:1003AC00194610467FEA655C1CBF0B46024650EAB4
:1003BC00013406BF52EA033591EA030F41F40021E0
:1003CC0030BD00BF90F0000F04BF0021704730B566
:1003DC004FF4806404F132044FF000054FF000013B
:1003EC0050E700BF90F0000F04BF0021704730B5FC
:1003FC004FF4806404F1320410F0004548BF4042D1
:10040C004FF000013EE700BF42004FEAE2014FEA25
:10041C0031014FEA02701FBF12F07F4393F07F4F00
:10042C0081F06051704732F07F4208BF704793F003
:10043C007F4F04BF41F40021704730B54FF4607416
:10044C0001F0004521F000411CE700BF50EA010219
:10045C0008BF704730B54FF000050AE050EA0102C2
:10046C0008BF704730B511F0004502D5404261EB32
:10047C0041014FF4806404F132045FEA915C3FF473
:10048C00D8AE4FF003025FEADC0C18BF03325FEA10
:10049C00DC0C18BF033202EBDC02C2F1200300FAC1
:1004AC0003FC20FA02F001FA03FE40EA0E0021FAE6
:1004BC0002F11444BDE600BF4FEA410212F50012EE
:1004CC0015D211D56FF47873B3EB625212D94FEA8F
:1004DC00C12343F0004343EA505311F0004F23FA79
:1004EC0002F018BF404270474FF00000704750EACE
:1004FC00013005D111F0004008BF6FF0004070478B
:10050C004FF00000704700BF80B400AF064B1B6873
:10051C00622B05DC044B1B680133034A136000E0BB
:10052C0000BFBD4680BC70470000002080B400AF07
:10053C00034B01221A6000BFBD4680BC704700BF50
:10054C000000002080B582B000AF00237B6027E064
:10055C007B68DBB2184600F0F1F90346012B0ED193
:10056C00A74A7B6813441978A64A7B6813440A4649
:10057C001A70A34A7B68134401221A700DE0A04A3A
:10058C007B68134419789F4A7B6813440A461A7097
:10059C009B4A7B68134400221A707B6801337B6092
:1005AC007B68022BD4DD984B1B78032B00F218814F
:1005BC0001A252F823F000BFD50500080F06000871
:1005CC00AD06000847070008012000F0B9FF002025
:1005DC0000F0C4FF00F0ACFC012000F0D3FA884B13
:1005EC001B78002B40F00081864B1B78012B40F0D0
:1005FC00FB8000F0DFF9FFF799FF834B01221A70A3
:10060C00F2E0002000F09CFF012000F0A7FF7F4BE0
:10061C001B68184600F07AFB7C4B1B68184600F0F0
:10062C00F1FA022000F0AEFA012000F037FD744B15
:10063C005B78002B05D1734B5B78012B01D1FFF755
:10064C0063FF6F4B9B78002B18D16E4B9B78012B63
:10065C0014D16E4B1B684FF47A7202FB03F31846ED
:10066C0000F044FF00F0A6F9FFF760FF01F03CF842
:10067C00012001F003F8644B02221A70604B1B78C6
:10068C00002B40F0B3805F4B1B78012B40F0AE8009
:10069C0000F090F9FFF74AFF5B4B02221A70A5E0BD
:1006AC00002000F04DFF012000F058FF574B1B6855
:1006BC00184600F02BFB554B1B68184600F0A2FAAD
:1006CC00032000F05FFA022000F0E8FC4C4B5B7852
:1006DC00002B05D14B4B5B78012B01D1FFF714FF9D
:1006EC00474B9B78002B18D1464B9B78012B14D190
:1006FC00464B1B684FF47A7202FB03F3184600F06A
:10070C0003FF00F057F9FFF711FF00F0EDFF022097
:10071C0000F0B4FF3C4B03221A70394B1B78002BB2
:10072C0066D1384B1B78012B62D100F043F9FFF7EF
:10073C00FDFE354B03221A705AE0002000F000FF3A
:10074C00012000F00BFF314B1B68184600F0DEFA5D
:10075C002E4B1B68184600F055FA042000F012FAD4
:10076C00032000F09BFC264B5B78002B05D1254B1E
:10077C005B78012B01D1FFF7C7FE214B9B78002B37
:10078C001AD1204B9B78012B16D1204B1B684FF4B0
:10079C007A7202FB03F3184600F0C4FE00F00AF96B
:1007AC00FFF7C4FE00F0A0FF00F0E2F8032000F019
:1007BC0065FF154B00221A70114B1B78002B19D1B9
:1007CC00104B1B78012B15D100F0F4F8FFF7AEFE9F
:1007DC0000F08AFF00F0CCF80B4B00221A7009E0F5
:1007EC00094B00221A7006E000BF04E000BF02E0D3
:1007FC0000BF00E000BF00BF0837BD4680BD00BF92
:10080C00600000205C000020580000200000002048
:10081C0080B582B000AF78607B68022B17D07B6804
:10082C00022B1BDC7B68002B03D07B68012B07D0D1
:10083C0014E04FF400610C4801F0CAFA03460EE0D4
:10084C004FF48051084801F0C3FA034607E04FF417
:10085C000051054801F0BCFA034600E0012318469C
:10086C000837BD4680BD00BF000C014080B582B08A
:10087C0000AF00237B604FE02B4A7B681344197850
:10088C002A4A7B6813440A461A707868FFF7C0FF3F
:10089C0003461946244A7B6813440A461A70224AB6
:1008AC007B6813441A7821497B680B441B789A4265
:1008BC0008D11D4A7B68134419781D4A7B68134480
:1008CC000A461A701A4A7B6813441B78002B16D1FF
:1008DC00184A7B6832F81330632B0AD8154A7B68A8
:1008EC0032F81330013399B2124A7B6822F8131094
:1008FC000FE0114A7B68134401221A7009E00D4A7B
:10090C007B68002122F813100B4A7B6813440022E9
:10091C001A707B6801337B607B68022BACDD00BFF7
:10092C0000BF0837BD4680BD080000200C00002029
:10093C0004000020680000206400002080B483B014
:10094C0000AF0346FB71FB79022B01D9002307E0B2
:10095C00FB79064AD35C002B0CBF01230023DBB2CE
:10096C0018460C37BD4680BC704700BF0400002001
:10097C0080B400AF044B00221A70034B02225A7051
:10098C0000BFBD4680BC70477000002080B500AF32
:10099C00074B00221A70064B02225A7000F03EFAE6
:1009AC0000F084FA012000F0EDF800BF80BD00BF1C
:1009BC007000002080B582B000AF00237B6026E081
:1009CC00174A7B6852F82300164A7B6832F81330BA
:1009DC000022194601F013FA134A7B6852F82300DF
:1009EC00124A7B6832F813300022194601F007FADC
:1009FC000F4A7B6852F823000E4A7B6832F813309A
:100A0C000022194601F0FBF97B6801337B607B689F
:100A1C00012BD5DD00BF00BF0837BD4680BD00BF30
:100A2C00502E000810000020582E00081400002042
:100A3C00602E00081800002080B584B000AFF8606C
:100A4C00B9607A603B60FB68002B36DBFB68012BDE
:100A5C0033DC1C4AFB6852F823001B4AFB6832F853
:100A6C001310BB68002B14BF01230023DBB21A4602
:100A7C0001F0C5F9154AFB6852F82300144AFB68CB
:100A8C0032F813107B68002B14BF01230023DBB258
:100A9C001A4601F0B4F90F4AFB6852F823000E4ACB
:100AAC00FB6832F813103B68002B14BF01230023A2
:100ABC00DBB21A4601F0A3F900E000BF1037BD46C7
:100ACC0080BD00BF502E000810000020582E0008DA
:100ADC0014000020602E00081800002080B584B09F
:100AEC0000AF78600023FB6037E07B68032B23D0DA
:100AFC007B68032B2DDC7B68012B03D07B68022BDE
:100B0C000DD026E0194AFB6852F823201849FB68DF
:100B1C0031F813301946104601F089F91AE0154ADC
:100B2C00FB6852F823201449FB6831F8133019463E
:100B3C00104601F07CF90DE0104AFB6852F82320B6
:100B4C000F49FB6831F813301946104601F06FF964
:100B5C0000E000BFFB680133FB60FB68012BC4DDC8
:100B6C0000BF00BF1037BD4680BD00BF502E00082F
:100B7C0010000020582E000814000020602E0008E1
:100B8C001800002080B586B000AF78607B6803F059
:100B9C000F037B6103233B6110E07B69DBB203F045
:100BAC000103D9B207F10C023B6913440A461A70CF
:100BBC007B695B107B613B69013B3B613B69002BB3
:100BCC00EBDAFB7B1A4680210D4801F018F9BB7B50
:100BDC001A464FF480710A4801F011F97B7B1A46D2
:100BEC004FF40071064801F00AF93B7B1A464FF4AA
:100BFC008061034801F003F900BF1837BD4680BD82
:100C0C000008014080B588B000AF78607B68002B8D
:100C1C0001DA00237B607B68632B01DD63237B603F
:100C2C007B68384A82FB03129210DB17D31AFB61E4
:100C3C007A68344B83FB02139910D317C91A0B46ED
:100C4C009B000B445B00D31ABB6103237B611EE04A
:100C5C00FB69DBB203F00103D9B207F110027B6927
:100C6C0013440A461A70FB695B10FB61BB69DBB26B
:100C7C0003F00103D9B207F10C027B6913440A4655
:100C8C001A70BB695B10BB617B69013B7B617B6943
:100C9C00002BDDDAFB7C1A4608211B4801F0AFF86B
:100CAC00BB7C1A461021184801F0A9F87B7C1A4627
:100CBC002021154801F0A3F83B7C1A46402112482C
:100CCC0001F09DF8FB7B1A4680210F4801F097F844
:100CDC00BB7B1A464FF480710B4801F090F87B7B7C
:100CEC001A464FF40071084801F089F83B7B1A460C
:100CFC004FF48061044801F082F800BF2037BD46F4
:100D0C0080BD00BF67666666000C014080B588B088
:100D1C0000AF78607B68002B01DA00237B607B6876
:100D2C00632B01DD63237B607B68394A82FB0312F2
:100D3C009210DB17D31AFB617A68354B83FB0213D5
:100D4C009910D317C91A0B469B000B445B00D31A9E
:100D5C00BB6103237B611EE0FB69DBB203F0010383
:100D6C00D9B207F110027B6913440A461A70FB6969
:100D7C005B10FB61BB69DBB203F00103D9B207F175
:100D8C000C027B6913440A461A70BB695B10BB6189
:100D9C007B69013B7B617B69002BDDDAFB7C1A46AE
:100DAC004FF400611B4801F02AF8BB7C1A464FF443
:100DBC008051184801F023F87B7C1A464FF40051FF
:100DCC00144801F01CF83B7C1A464FF48041114842
:100DDC0001F015F8FB7B1A464FF400410D4801F069
:100DEC000EF8BB7B1A4601210B4801F008F87B7BFF
:100DFC001A460221084801F002F83B7B1A460421EE
:100E0C00054800F0FCFF00BF2037BD4680BD00BF89
:100E1C006766666600080140000C014080B500AFB3
:100E2C00214B1B78022B14D0022B19DC002B02D087
:100E3C00012B07D014E00023002201210020FFF732
:100E4C00FBFD0EE00023012200210020FFF7F4FD42
:100E5C0007E00123002200210020FFF7EDFD00E058
:100E6C0000BF114B5B78022B14D0022B19DC002B2A
:100E7C0002D0012B07D014E0002300220121012015
:100E8C00FFF7DAFD0EE00023012200210120FFF71D
:100E9C00D3FD07E00123002200210120FFF7CCFD48
:100EAC0000E000BF00BF80BD7000002080B500AF27
:100EBC00002000F0B3FB0346013B1B4A82FB0312EC
:100ECC005211DB17D31A1846FFF78CFA4FF00002B9
:100EDC00164BFFF73BF902460B4610461946FFF737
:100EEC00EBFA03461846FFF711FF012000F096FBC2
:100EFC000346013B0C4A82FB03125211DB17D31A37
:100F0C001846FFF76FFA4FF00002084BFFF71EF977
:100F1C0002460B4610461946FFF7CEFA0346184612
:100F2C00FFF770FE00BF80BD1F85EB510000F03F46
:100F3C0080B500AF002000F057FB0346012B4DD1CC
:100F4C00534B1B78022B32D0022B46DC002B02D0E9
:100F5C00012B16D041E000F03DFB03461946002062
:100F6C0000F054FA00F036FB03464A4A82FB0312A7
:100F7C009211DB17D31A484A1360454B02221A70A0
:100F8C002CE000F013FB03461946002000F03EFA5B
:100F9C0000F00CFB03463F4A82FB03129211DB1755
:100FAC00D31A3D4A13603A4B00221A7016E000F037
:100FBC0007FB03461946002000F028FA00F000FB5E
:100FCC000346344A82FB03129211DB17D31A324ABE
:100FDC0013602F4B01221A7000E000BF012000F0BB
:100FEC0003FB0346012B4DD1294B5B78022B32D0EE
:100FFC00022B46DC002B02D0012B16D041E000F076
:10100C00E9FA03461946012000F000FA00F0E2FA72
:10101C000346204A82FB03129211DB17D31A1E4A95
:10102C0053601B4B02225A702CE000F0BFFA0346AF
:10103C001946012000F0EAF900F0B8FA0346154A07
:10104C0082FB03129211DB17D31A134A5360104B15
:10105C0000225A7016E000F0B3FA0346194601203C
:10106C0000F0D4F900F0ACFA03460A4A82FB0312F2
:10107C009211DB17D31A084A5360054B01225A70A0
:10108C0000E000BFFFF7CAFEFFF710FF00BF80BDF6
:10109C0070000020D34D62107400002080B582B027
:1010AC0000AF786000F0B0FA0346012B04D17868E9
:1010BC00FFF714FD00F060FA00BF0837BD4680BD95
:1010CC0080B500AF00F0BAFA00F022FBFFF75EFC2F
:1010DC0000BF80BD80B500AF00F06AFB00F012F8D5
:1010EC0000F098F800F04AF8054801F0E7FAFFF72D
:1010FC00E7FF4FF47A7000F0BDFBFFF723FAFCE733
:10110C007C00002080B590B000AF07F118032822B6
:10111C000021184601F05EFE3B1D00221A605A6049
:10112C009A60DA601A610223BB610123BB6210234F
:10113C00FB6200237B6307F11803184600F090FE56
:10114C000346002B01D000F0C9F80F237B6000236D
:10115C00BB600023FB6000233B6100237B613B1DD4
:10116C000021184601F0FEF80346002B01D000F0D8
:10117C00B5F800BF4037BD4680BD000080B586B0D5
:10118C0000AF07F1080300221A605A609A60DA6017
:10119C003B4600221A605A601D4B4FF080421A6089
:1011AC001B4B41F63F725A60194B00229A60184B48
:1011BC000922DA60164B00221A61154B00229A6143
:1011CC00134801F02BFA0346002B01D000F086F8EF
:1011DC004FF48053BB6007F1080319460C4801F02B
:1011EC00A9FB0346002B01D000F078F800233B60EC
:1011FC0000237B603B461946054801F081FD034600
:10120C00002B01D000F06AF800BF1837BD4680BD36
:10121C007C00002080B586B000AF07F108030022E7
:10122C001A605A609A60DA60294B9B69284A43F02D
:10123C0004039361264B9B6903F004037B607B687A
:10124C00234B9B69224A43F008039361204B9B6913
:10125C0003F008033B603B6800224FF6FE711D480B
:10126C0000F0CDFD002240F2FF711B4800F0C7FDDD
:10127C004FF6FE73BB600123FB6000233B6102232E
:10128C007B6107F108031946124800F025FC40F277
:10129C00FF73BB600123FB6000233B6102237B6176
:1012AC0007F1080319460C4800F016FC4FF4605384
:1012BC00BB600023FB6000233B6107F10803194668
:1012CC00054800F009FC00BF1837BD4680BD00BFC3
:1012DC000010024000080140000C014080B400AF37
:1012EC0072B600BF00BFFDE780B485B000AF154BF0
:1012FC009B69144A43F001039361124B9B6903F001
:10130C000103BB60BB680F4BDB690E4A43F0805393
:10131C00D3610C4BDB6903F080537B607B680A4B19
:10132C005B68FB60FB6823F0E063FB60FB6843F0E9
:10133C008063FB60044AFB68536000BF1437BD46F2
:10134C0080BC7047001002400000014080B584B0A2
:10135C0000AF78607B681B68B3F1804F13D10C4BE6
:10136C00DB690B4A43F00103D361094BDB6903F0E2
:10137C000103FB60FB68002200211C2000F075FBC0
:10138C001C2000F08EFB00BF1037BD4680BD00BF97
:10139C000010024080B400AF00BFFDE780B400AF86
:1013AC0000BFFDE780B400AF00BFFDE780B400AF25
:1013BC0000BFFDE780B400AF00BFFDE780B400AF15
:1013CC0000BFBD4680BC704780B400AF00BFBD46B7
:1013DC0080BC704780B400AF00BFBD4680BC704776
:1013EC0080B500AF00F02AFA00BF80BD80B500AF19
:1013FC00024801F0AFF900BF80BD00BF7C000020A7
:10140C0080B400AF00BFBD4680BC704780B483B0D1
:10141C0000AF786039607B68002B11DB7B68012B97
:10142C000EDC0A4B1B683A6892FBF3F208497B68A6
:10143C0041F82320074A7B68002142F8231000E082
:10144C0000BF0C37BD4680BC704700BF2000002099
:10145C00D0000020D800002080B483B000AF00235F
:10146C007B601CE0124A7B6852F82330002B13DDA2
:10147C000F4A7B6852F823305A1E0D497B6841F89D
:10148C0023200B4A7B6852F82330002B04D1094AE5
:10149C007B68012142F823107B6801337B607B68F9
:1014AC00012BDFDD00BF00BF0C37BD4680BC704791
:1014BC00D0000020D800002080B400AF094B1B687E
:1014CC00002B0BDD074B1B68013B064A1360054BD9
:1014DC001B68002B02D1044B01221A6000BFBD46D1
:1014EC0080BC7047CC000020E000002080B483B0AA
:1014FC0000AF7860034A7B68136000BF0C37BD46B1
:10150C0080BC70472400002080B483B000AF7860AA
:10151C00034A7B68136000BF0C37BD4680BC704724
:10152C002800002080B483B000AF7860034A7B6849
:10153C00136000BF0C37BD4680BC70472C000020E8
:10154C0080B483B000AF7860034A7B68136000BF3F
:10155C000C37BD4680BC7047C400002080B483B0FB
:10156C0000AF7860034A7B68136000BF0C37BD4640
:10157C0080BC7047C800002080B400AF074B1A68CD
:10158C00074B1B6892FBF3F3064A1360064B0022D1
:10159C001A6000BFBD4680BC704700BF3000002001
:1015AC0020000020CC000020E000002080B400AF20
:1015BC00024B1B681846BD4680BC704724000020B7
:1015CC0080B400AF024B1B681846BD4680BC704708
:1015DC002800002080B400AF024B1B681846BD46A3
:1015EC0080BC70472C00002080B483B000AF7860C2
:1015FC00044A7B6852F8233018460C37BD4680BC31
:10160C00704700BFD800002080B400AF024B1B68AD
:10161C001846BD4680BC7047E000002080B483B003
:10162C0000AF7860044A7B6852F8233018460C37B8
:10163C00BD4680BC704700BFD000002080B500AF15
:10164C00FFF7B4FF034619460020FFF7DFFEFFF754
:10165C00C1FF034619460120FFF7D8FE044B1A6858
:10166C00044B1B6892FBF3F3034A136000BF80BD6D
:10167C003000002020000020CC00002080B483B07B
:10168C0000AF78607B68012B09D1144B1A68144B9E
:10169C001B68D31A002BB8BF5B42124A13607B68DD
:1016AC00022B09D10D4B1A680E4B1B68D31A002B59
:1016BC00B8BF5B420A4A13607B68032B09D1074B06
:1016CC001A68074B1B68D31A002BB8BF5B42054A3C
:1016DC00136000BF0C37BD4680BC7047240000204F
:1016EC002C0000202800002080B500AFFFF75EFF23
:1016FC00034619460020FFF789FEFFF76BFF0346F0
:10170C0019460120FFF782FEFFF736FF00BF80BDB0
:10171C0080B400AF044B01221A60044B00221A6003
:10172C0000BFBD4680BC7047C4000020C80000202C
:10173C0080B582B000AF78607B681B68B3F1804FD6
:10174C000AD1FFF793F8064B1B68002B02D0FFF76A
:10175C0083FE01E0FFF7B0FE00BF0837BD4680BD39
:10176C00C4000020FFF74CFE0B480C490C4A002328
:10177C0002E0D458C4500433C4188C42F9D3094A3B
:10178C00094C002301E013600432A242FBD301F0A8
:10179C0029FBFFF79FFC7047000000203C00002055
:1017AC00942E00083C000020E8000020FEE700001A
:1017BC0080B500AF084B1B68074A43F01003136059
:1017CC00032000F047F90F2000F008F8FFF78CFD1C
:1017DC000023184680BD00BF0020024080B582B0B7
:1017EC0000AF7860124B1A68124B1B7819464FF4F5
:1017FC007A73B3FBF1F3B2FBF3F3184600F05FF925
:10180C000346002B01D001230EE07B680F2B0AD876
:10181C00002279684FF0FF3000F027F9064A7B6808
:10182C001360002300E0012318460837BD4680BD35
:10183C001C000020380000203400002080B400AFD1
:10184C00054B1B781A46054B1B681344034A13605F
:10185C0000BFBD4680BC704738000020E40000206B
:10186C0080B400AF024B1B681846BD4680BC704765
:10187C00E400002080B584B000AF7860FFF7F0FF83
:10188C00B8607B68FB60FB68B3F1FF3F05D00A4B87
:10189C001B781A46FB681344FB6000BFFFF7E0FFA0
:1018AC000246BB68D31AFA689A42F7D800BF00BF49
:1018BC001037BD4680BD00BF3800002080B485B015
:1018CC0000AF78607B6803F00703FB600C4BDB68B0
:1018DC00BB60BA684FF6FF031340BB60FB681A028B
:1018EC00BB68134343F0BF6343F40033BB60044A4B
:1018FC00BB68D36000BF1437BD4680BC704700BFC7
:10190C0000ED00E080B400AF044BDB681B0A03F071
:10191C0007031846BD4680BC704700BF00ED00E0D1
:10192C0080B483B000AF0346FB7197F90730002BEE
:10193C000BDBFB7903F01F02064997F907305B09B3
:10194C00012000FA02F241F8232000BF0C37BD46FB
:10195C0080BC704700E100E080B483B000AF034668
:10196C003960FB7197F90730002B0ADB3B68DAB260
:10197C000C4997F907301201D2B20B4483F80023BB
:10198C000AE03B68DAB20849FB7903F00F03043B29
:10199C001201D2B20B441A7600BF0C37BD4680BC84
:1019AC00704700BF00E100E000ED00E080B489B0BA
:1019BC0000AFF860B9607A60FB6803F00703FB6165
:1019CC00FB69C3F10703042B28BF0423BB61FB692C
:1019DC000433062B02D9FB69033B00E000237B6137
:1019EC004FF0FF32BB6902FA03F3DA43BB681A40CB
:1019FC007B699A404FF0FF317B6901FA03F3D943BD
:101A0C007B680B40134318462437BD4680BC704797
:101A1C0080B582B000AF78607B68013BB3F1807F0A
:101A2C0001D301230FE00A4A7B68013B53600F216D
:101A3C004FF0FF30FFF790FF054B00229A60044BEC
:101A4C0007221A60002318460837BD4680BD00BF28
:101A5C0010E000E080B582B000AF78607868FFF7E6
:101A6C002DFF00BF0837BD4680BD80B586B000AFE6
:101A7C000346B9607A60FB7300237B61FFF742FF7A
:101A8C0078617A68B9687869FFF790FF024697F930
:101A9C000F3011461846FFF75FFF00BF1837BD46E1
:101AAC0080BD80B582B000AF0346FB7197F907305B
:101ABC001846FFF735FF00BF0837BD4680BD80B51F
:101ACC0082B000AF78607868FFF7A2FF0346184633
:101ADC000837BD4680BD000080B48BB000AF786085
:101AEC00396000237B6200233B6261E101227B6A47
:101AFC0002FA03F3FB613B681B68FA691340BB6194
:101B0C00BA69FB699A4240F050813B685B68974A1E
:101B1C0093425ED0954A934275D8954A934258D0D9
:101B2C00934A93426FD8934A934252D0914A93422C
:101B3C0069D8914A93424CD08F4A934263D88F4ACA
:101B4C00934246D08D4A93425DD8122B2AD8122B41
:101B5C0059D801A252F823F0DF1B0008B91B00086A
:101B6C00CB1B00080D1C0008131C0008131C0008DC
:101B7C00131C0008131C0008131C0008131C00087D
:101B8C00131C0008131C0008131C0008131C00086D
:101B9C00131C0008131C0008131C0008C11B0008B0
:101BAC00D51B0008764A934213D02CE03B68DB68C7
:101BBC003B6229E03B68DB6804333B6224E03B6812
:101BCC00DB6808333B621FE03B68DB680C333B622D
:101BDC001AE03B689B68002B02D104233B6213E0A4
:101BEC003B689B68012B05D108233B627B68FA6933
:101BFC001A6109E008233B627B68FA695A6103E0C9
:101C0C0000233B6200E000BFBB69FF2B01D87B685F
:101C1C0001E07B6804337B61BB69FF2B02D87B6AD4
:101C2C009B0002E07B6A083B9B003B617B691A6866
:101C3C000F213B6901FA03F3DB431A40396A3B6914
:101C4C0001FA03F31A437B691A603B685B6803F083
:101C5C008053002B00F0A9804A4B9B69494A43F002
:101C6C0001039361474B9B6903F00103BB60BB68A5
:101C7C00454A7B6A9B08023352F82330FB607B6A2F
:101C8C0003F003039B000F2202FA03F3DB43FA6811
:101C9C001340FB607B683D4A93420DD07B683C4A05
:101CAC00934207D07B683B4A934201D1022304E064
:101CBC00032302E0012300E000237A6A02F003020E
:101CCC0092009340FA681343FB602F497B6A9B0890
:101CDC000233FA6841F823203B685B6803F48013F5
:101CEC00002B06D02C4B9A682B49BB6913438B6095
:101CFC0006E0294B9A68BB69DB43274913408B608C
:101D0C003B685B6803F40013002B06D0224BDA68A7
:101D1C002149BB691343CB6006E01F4BDA68BB69F2
:101D2C00DB431D491340CB603B685B6803F4003315
:101D3C00002B06D0184B5A681749BB6913434B60EC
:101D4C0006E0154B5A68BB69DB43134913404B60E3
:101D5C003B685B6803F48033002B1FD00E4B1A6872
:101D6C000D49BB6913430B601FE000BF000032102C
:101D7C000000311000002210000021100000121091
:101D8C00000011100010024000000140000801404A
:101D9C00000C014000100140000401400B4B1A687C
:101DAC00BB69DB43094913400B607B6A01337B62DF
:101DBC003B681A687B6A22FA03F3002B7FF496AE19
:101DCC0000BF00BF2C37BD4680BC704700040140EB
:101DDC0080B485B000AF78600B467B807B689A68D6
:101DEC007B881340002B02D00123FB7301E00023FE
:101DFC00FB73FB7B18461437BD4680BC704780B420
:101E0C0083B000AF78600B467B8013467B707B7889
:101E1C00002B03D07A887B681A6103E07B881A0454
:101E2C007B681A6100BF0C37BD4680BC704780B41C
:101E3C0085B000AF78600B467B807B68DB68FB600D
:101E4C007A88FB6813401A04FB68D9437B880B40E3
:101E5C001A437B681A6100BF1437BD4680BC7047BB
:101E6C0080B586B000AF78607B68002B01D1012370
:101E7C0072E27B681B6803F00103002B00F0878083
:101E8C00924B5B6803F00C03042B0CD08F4B5B68FC
:101E9C0003F00C03082B12D18C4B5B6803F48033DA
:101EAC00B3F5803F0BD1894B1B6803F40033002B37
:101EBC006CD07B685B68002B68D101234CE27B689B
:101ECC005B68B3F5803F06D1804B1B687F4A43F4B7
:101EDC00803313602EE07B685B68002B0CD17B4B4E
:101EEC001B687A4A23F480331360784B1B68774A5B
:101EFC0023F4802313601DE07B685B68B3F5A02F8F
:101F0C000CD1724B1B68714A43F4802313606F4BE6
:101F1C001B686E4A43F4803313600BE06B4B1B68F9
:101F2C006A4A23F480331360684B1B68674A23F4B6
:101F3C00802313607B685B68002B13D0FFF790FC49
:101F4C00386108E0FFF78CFC02463B69D31A642B1E
:101F5C0001D9032300E25D4B1B6803F40033002B13
:101F6C00F0D014E0FFF77CFC386108E0FFF778FC58
:101F7C0002463B69D31A642B01D90323ECE1534B82
:101F8C001B6803F40033002BF0D100E000BF7B682A
:101F9C001B6803F00203002B63D04C4B5B6803F00F
:101FAC000C03002B0BD0494B5B6803F00C03082B84
:101FBC001CD1464B5B6803F48033002B16D1434B8A
:101FCC001B6803F00203002B05D07B681B69012BF7
:101FDC0001D00123C0E13D4B1B6823F0F8027B6864
:101FEC005B69DB00394913430B603AE07B681B6982
:101FFC00002B20D0364B01221A60FFF731FC3861E0
:10200C0008E0FFF72DFC02463B69D31A022B01D9DD
:10201C000323A1E12D4B1B6803F00203002BF0D02E
:10202C002A4B1B6823F0F8027B685B69DB002749AD
:10203C0013430B6015E0264B00221A60FFF710FCCF
:10204C00386108E0FFF70CFC02463B69D31A022BFF
:10205C0001D9032380E11D4B1B6803F00203002B05
:10206C00F0D17B681B6803F00803002B3AD07B6827
:10207C009B69002B19D0174B01221A60FFF7F0FB5C
:10208C00386108E0FFF7ECFB02463B69D31A022BE0
:10209C0001D9032360E10D4B5B6A03F00203002BB3
:1020AC00F0D0012000F09CFA1CE00A4B00221A60D0
:1020BC00FFF7D6FB38610FE0FFF7D2FB02463B6916
:1020CC00D31A022B08D9032346E100BF00100240AB
:1020DC000000424280044242924B5B6A03F00203CE
:1020EC00002BE9D17B681B6803F00403002B00F084
:1020FC00A6800023FB758B4BDB6903F08053002B10
:10210C000DD1884BDB69874A43F08053D361854BF3
:10211C00DB6903F08053BB60BB680123FB75824B0A
:10212C001B6803F48073002B18D17F4B1B687E4A0D
:10213C0043F480731360FFF793FB386108E0FFF7FB
:10214C008FFB02463B69D31A642B01D9032303E1AD
:10215C00754B1B6803F48073002BF0D07B68DB6835
:10216C00012B06D16F4B1B6A6E4A43F001031362BD
:10217C002DE07B68DB68002B0CD16A4B1B6A694A2B
:10218C0023F001031362674B1B6A664A23F00403B6
:10219C0013621CE07B68DB68052B0CD1614B1B6A5E
:1021AC00604A43F0040313625E4B1B6A5D4A43F0C2
:1021BC00010313620BE05B4B1B6A5A4A23F00103C9
:1021CC001362584B1B6A574A23F0040313627B6853
:1021DC00DB68002B15D0FFF743FB38610AE0FFF7F3
:1021EC003FFB02463B69D31A41F28832934201D934
:1021FC000323B1E04B4B1B6A03F00203002BEED020
:10220C0014E0FFF72DFB38610AE0FFF729FB0246CB
:10221C003B69D31A41F28832934201D903239BE0E4
:10222C00404B1B6A03F00203002BEED1FB7D012B0C
:10223C0005D13C4BDB693B4A23F08053D3617B686F
:10224C00DB69002B00F08780364B5B6803F00C03D6
:10225C00082B61D07B68DB69022B46D1334B002203
:10226C001A60FFF7FDFA386108E0FFF7F9FA024649
:10227C003B69D31A022B01D903236DE0294B1B6850
:10228C0003F00073002BF0D17B681B6AB3F5803F21
:10229C0008D1244B5B6823F400327B689B6821498E
:1022AC0013434B601F4B5B6823F474127B68196AF1
:1022BC007B685B6A0B431B4913434B601B4B01222E
:1022CC001A60FFF7CDFA386108E0FFF7C9FA024649
:1022DC003B69D31A022B01D903233DE0114B1B6838
:1022EC0003F00073002BF0D035E0104B00221A6085
:1022FC00FFF7B6FA386108E0FFF7B2FA02463B691D
:10230C00D31A022B01D9032326E0064B1B6803F0DA
:10231C000073002BF0D11EE07B68DB69012B07D129
:10232C00012319E00010024000700040600042429E
:10233C000B4B5B68FB60FB6803F480327B681B6AA9
:10234C009A4206D1FB6803F470127B685B6A9A426E
:10235C0001D0012300E0002318461837BD4680BD8C
:10236C000010024080B584B000AF786039607B68A3
:10237C00002B01D10123D0E06A4B1B6803F007034B
:10238C003A689A4210D9674B1B6823F007026549DB
:10239C003B6813430B60634B1B6803F007033A68FD
:1023AC009A4201D00123B8E07B681B6803F002035A
:1023BC00002B20D07B681B6803F00403002B05D096
:1023CC00594B5B68584A43F4E06353607B681B6865
:1023DC0003F00803002B05D0534B5B68524A43F4BF
:1023EC0060535360504B5B6823F0F0027B689B6832
:1023FC004D4913434B607B681B6803F00103002BB2
:10240C0040D07B685B68012B07D1474B1B6803F4FA
:10241C000033002B15D101237FE07B685B68022B16
:10242C0007D1414B1B6803F00073002B09D101232A
:10243C0073E03D4B1B6803F00203002B01D1012319
:10244C006BE0394B5B6823F003027B685B683649B1
:10245C0013434B60FFF704FAF8600AE0FFF700FA49
:10246C000246FB68D31A41F28832934201D9032306
:10247C0053E02D4B5B6803F00C027B685B689B00A0
:10248C009A42EBD1274B1B6803F007033A689A4238
:10249C0010D2244B1B6823F0070222493B681343DC
:1024AC000B60204B1B6803F007033A689A4201D07B
:1024BC00012332E07B681B6803F00403002B08D077
:1024CC00194B5B6823F4E0627B68DB6816491343A5
:1024DC004B607B681B6803F00803002B09D0124B80
:1024EC005B6823F460527B681B69DB000E49134365
:1024FC004B6000F021F802460B4B5B681B0903F0A4
:10250C000F030A49CB5C22FA03F3094A1360094B07
:10251C001B681846FFF762F9002318461037BD46B2
:10252C0080BD00BF0020024000100240682E000851
:10253C001C0000203400002080B487B000AF0023C2
:10254C00FB600023BB6000237B6100237B600023C6
:10255C003B611E4B5B68FB60FB6803F00C03042BB8
:10256C0002D0082B03D027E0194B3B6127E0FB6816
:10257C009B0C03F00F03174AD35C7B60FB6803F4DE
:10258C008033002B10D0114B5B685B0C03F0010304
:10259C00114AD35CBB607B680D4A03FB02F2BB683B
:1025AC00B2FBF3F37B6104E07B680C4A02FB03F3A0
:1025BC007B617B693B6102E0054B3B6100BF3B6982
:1025CC0018461C37BD4680BC704700BF0010024047
:1025DC0000127A00782E0008882E000800093D00B1
:1025EC0080B485B000AF78600A4B1B680A4AA2FB26
:1025FC0003235B0A7A6802FB03F3FB6000BFFB68F2
:10260C005A1EFA60002BF9D100BF00BF1437BD462B
:10261C0080BC70471C000020D34D621080B582B086
:10262C0000AF78607B68002B01D1012341E07B680F
:10263C0093F83D30DBB2002B06D17B68002283F887
:10264C003C207868FEF782FE7B68022283F83D20EE
:10265C007B681A687B6804331946104600F056FAFA
:10266C007B68012283F846207B68012283F83E2098
:10267C007B68012283F83F207B68012283F840208D
:10268C007B68012283F841207B68012283F8422079
:10269C007B68012283F843207B68012283F8442065
:1026AC007B68012283F845207B68012283F83D205A
:1026BC00002318460837BD4680BD000080B485B0A5
:1026CC0000AF78607B6893F83D30DBB2012B01D012
:1026DC00012335E07B68022283F83D207B681B6870
:1026EC00DA687B681B6842F00102DA607B681B6861
:1026FC00164A934209D07B681B68B3F1804F04D013
:10270C007B681B68124A934211D17B681B689B68DB
:10271C0003F00703FB60FB68062B10D07B681B687B
:10272C001A687B681B6842F001021A6007E07B683C
:10273C001B681A687B681B6842F001021A60002350
:10274C0018461437BD4680BC704700BF002C0140B2
:10275C000004004080B584B000AF78607B681B68D3
:10276C00DB68FB607B681B681B69BB60BB6803F0A4
:10277C000203002B20D0FB6803F00203002B1BD0BC
:10278C007B681B686FF002021A617B6801221A7762
:10279C007B681B689B6903F00303002B03D07868EC
:1027AC0000F098F905E0786800F08BF9786800F093
:1027BC009AF97B6800221A77BB6803F00403002B9C
:1027CC0020D0FB6803F00403002B1BD07B681B6834
:1027DC006FF004021A617B6802221A777B681B680F
:1027EC009B6903F44073002B03D0786800F072F9F6
:1027FC0005E0786800F065F9786800F074F97B689A
:10280C0000221A77BB6803F00803002B20D0FB686A
:10281C0003F00803002B1BD07B681B686FF00802C9
:10282C001A617B6804221A777B681B68DB6903F0EA
:10283C000303002B03D0786800F04CF905E07868AE
:10284C0000F03FF9786800F04EF97B6800221A77A7
:10285C00BB6803F01003002B20D0FB6803F01003BF
:10286C00002B1BD07B681B686FF010021A617B6811
:10287C0008221A777B681B68DB6903F44073002B12
:10288C0003D0786800F026F905E0786800F019F9B3
:10289C00786800F028F97B6800221A77BB6803F08F
:1028AC000103002B0CD0FB6803F00103002B07D0B5
:1028BC007B681B686FF001021A617868FEF738FFBD
:1028CC00BB6803F08003002B0CD0FB6803F0800383
:1028DC00002B07D07B681B686FF080021A61786848
:1028EC0000F06FFABB6803F04003002B0CD0FB68C0
:1028FC0003F04003002B07D07B681B686FF040028D
:10290C001A61786800F0F8F8BB6803F02003002B1C
:10291C000CD0FB6803F02003002B07D07B681B68EE
:10292C006FF020021A61786800F042FA00BF10378D
:10293C00BD4680BD80B584B000AF7860396000239F
:10294C00FB737B6893F83C30012B01D10223B4E07C
:10295C007B68012283F83C207B68022283F83D20AF
:10296C007B681B689B68BB60BB6823F07703BB600C
:10297C00BB6823F47F43BB607B681B68BA689A60B2
:10298C003B681B68B3F5005F3ED0B3F5005F00F207
:10299C008780B3F5805F00F08680B3F5805F7FD8C9
:1029AC00702B1AD0702B7BD8602B50D0602B77D823
:1029BC00502B3CD0502B73D8402B58D0402B6FD879
:1029CC00302B64D0302B6BD8202B60D0202B67D8C9
:1029DC00002B5CD0102B5AD062E07B6818683B68E7
:1029EC0099683B685A683B68DB6800F06AF97B6859
:1029FC001B689B68BB60BB6843F07703BB607B685C
:102A0C001B68BA689A604FE07B6818683B689968E5
:102A1C003B685A683B68DB6800F053F97B681B68BD
:102A2C009A687B681B6842F480429A603CE07B6841
:102A3C0018683B6859683B68DB681A4600F0CAF8AE
:102A4C007B681B685021184600F021F92CE07B684C
:102A5C0018683B6859683B68DB681A4600F0E8F870
:102A6C007B681B686021184600F011F91CE07B683C
:102A7C0018683B6859683B68DB681A4600F0AAF88E
:102A8C007B681B684021184600F001F90CE07B685C
:102A9C001A683B681B681946104600F0F8F803E00A
:102AAC000123FB7300E000BF7B68012283F83D200B
:102ABC007B68002283F83C20FB7B18461037BD4610
:102ACC0080BD80B483B000AF786000BF0C37BD46CA
:102ADC0080BC704780B483B000AF786000BF0C3707
:102AEC00BD4680BC704780B483B000AF786000BF37
:102AFC000C37BD4680BC704780B483B000AF7860A3
:102B0C0000BF0C37BD4680BC7047000080B485B058
:102B1C0000AF786039607B681B68FB607B682B4A70
:102B2C00934207D07B68B3F1804F03D07B68284A6F
:102B3C00934208D1FB6823F07003FB603B685B6831
:102B4C00FA681343FB607B68204A934207D07B688A
:102B5C00B3F1804F03D07B681D4A934208D1FB68C8
:102B6C0023F44073FB603B68DB68FA681343FB603B
:102B7C00FB6823F080023B685B691343FB607B6856
:102B8C00FA681A603B689A687B68DA623B681A6874
:102B9C007B689A627B680D4A934203D13B681A6941
:102BAC007B681A637B6801225A617B681B6903F09E
:102BBC000103002B05D07B681B6923F001027B68A5
:102BCC001A6100BF1437BD4680BC7047002C014011
:102BDC000004004080B487B000AFF860B9607A6040
:102BEC00FB681B6A7B61FB681B6A23F00102FB68B4
:102BFC001A62FB689B693B613B6923F0F0033B6104
:102C0C007B681B013A6913433B617B6923F00A0320
:102C1C007B617A69BB6813437B61FB683A699A6193
:102C2C00FB687A691A6200BF1C37BD4680BC7047CE
:102C3C0080B487B000AFF860B9607A60FB681B6A3B
:102C4C007B61FB681B6A23F01002FB681A62FB684D
:102C5C009B693B613B6923F470433B617B681B03BD
:102C6C003A6913433B617B6923F0A0037B61BB682A
:102C7C001B017A6913437B61FB683A699A61FB68B3
:102C8C007A691A6200BF1C37BD4680BC704780B49D
:102C9C0085B000AF786039607B689B68FB60FB682F
:102CAC0023F07003FB603A68FB68134343F007039F
:102CBC00FB607B68FA689A6000BF1437BD4680BC25
:102CCC00704780B487B000AFF860B9607A603B6041
:102CDC00FB689B687B617B6923F47F437B613B686A
:102CEC001A027B681A43BB6813437A6913437B61EE
:102CFC00FB687A699A6000BF1C37BD4680BC704780
:102D0C0080B485B000AF786039607B6893F83C3054
:102D1C00012B01D1022341E07B68012283F83C2086
:102D2C007B68022283F83D207B681B685B68FB6034
:102D3C007B681B689B68BB60FB6823F07003FB60BF
:102D4C003B681B68FA681343FB607B681B68FA6876
:102D5C005A607B681B68144A934209D07B681B68D5
:102D6C00B3F1804F04D07B681B68104A93420CD19E
:102D7C00BB6823F08003BB603B685B68BA68134395
:102D8C00BB607B681B68BA689A607B68012283F819
:102D9C003D207B68002283F83C2000231846143722
:102DAC00BD4680BC704700BF002C014000040040B1
:102DBC0080B483B000AF786000BF0C37BD4680BCD8
:102DCC00704780B483B000AF786000BF0C37BD464D
:102DDC0080BC704703460244934200D1704703F80D
:102DEC00011BF9E770B500260C4D0D4C641BA410AB
:102DFC00A64209D100F01AF800260A4D0A4C641BB1
:102E0C00A410A64205D170BD55F8043B9847013675
:102E1C00EEE755F8043B98470136F2E78C2E000894
:102E2C008C2E00088C2E0008902E0008F8B500BFE0
:102E3C00F8BC08BC9E467047F8B500BFF8BC08BC8F
:042E4C009E467047E7
:102E5000000801400008014000080140000801404E
:102E600000080140000801400000000000000000D0
:102E700001020304060708090203040506070809FE
:0C2E80000A0B0C0D0E0F101001020000D8
:042E8C003101000808
:042E90000D01000828
:102E94000100000001010100010101000101010024
:102EA40002001000040020000800400000127A0014
:102EB4000A00000088130000D0070000B80B0000CF
:0C2EC400FA0000001000000001000000F7
:040000050800177167
:00000001FF
